{
    "contractName": "VerificationRegistry",
    "abi": [
        {
            "constant": false,
            "inputs": [
                {
                    "name": "hash",
                    "type": "bytes32"
                },
                {
                    "name": "validDays",
                    "type": "uint256"
                }
            ],
            "name": "verify",
            "outputs": [],
            "payable": false,
            "stateMutability": "nonpayable",
            "type": "function"
        },
        {
            "constant": true,
            "inputs": [
                {
                    "name": "",
                    "type": "bytes32"
                },
                {
                    "name": "",
                    "type": "address"
                }
            ],
            "name": "verifications",
            "outputs": [
                {
                    "name": "iat",
                    "type": "uint256"
                },
                {
                    "name": "exp",
                    "type": "uint256"
                }
            ],
            "payable": false,
            "stateMutability": "view",
            "type": "function"
        },
        {
            "constant": false,
            "inputs": [
                {
                    "name": "hash",
                    "type": "bytes32"
                }
            ],
            "name": "revoke",
            "outputs": [],
            "payable": false,
            "stateMutability": "nonpayable",
            "type": "function"
        },
        {
            "anonymous": false,
            "inputs": [
                {
                    "indexed": true,
                    "name": "hash",
                    "type": "bytes32"
                },
                {
                    "indexed": false,
                    "name": "by",
                    "type": "address"
                },
                {
                    "indexed": false,
                    "name": "date",
                    "type": "uint256"
                },
                {
                    "indexed": false,
                    "name": "expDate",
                    "type": "uint256"
                }
            ],
            "name": "Verified",
            "type": "event"
        },
        {
            "anonymous": false,
            "inputs": [
                {
                    "indexed": true,
                    "name": "hash",
                    "type": "bytes32"
                },
                {
                    "indexed": false,
                    "name": "by",
                    "type": "address"
                },
                {
                    "indexed": false,
                    "name": "date",
                    "type": "uint256"
                }
            ],
            "name": "Revoked",
            "type": "event"
        }
    ],
    "bytecode": "608060405234801561001057600080fd5b50610232806100206000396000f3006080604052600436106100565763ffffffff7c0100000000000000000000000000000000000000000000000000000000600035041663382262fc811461005b57806395f5114c14610078578063b75c7dc6146100c2575b600080fd5b34801561006757600080fd5b506100766004356024356100da565b005b34801561008457600080fd5b506100a960043573ffffffffffffffffffffffffffffffffffffffff60243516610171565b6040805192835260208301919091528051918290030190f35b3480156100ce57600080fd5b50610076600435610192565b60008082116100ea5760006100f3565b81620151800242015b604080518082018252428082526020808301858152600089815280835285812033808352908452908690209451855590516001909401939093558351928352820152808201839052905191925084917fef081e4d12d9d2377ab4c9af5421f0ce40d78d2031cb2cccd1c23eb0a3c6ecce9181900360600190a2505050565b60006020818152928152604080822090935290815220805460019091015482565b604080518082018252600080825242602080840182815286845283825285842033808652908352938690209451855551600190940193909355835191825291810191909152815183927fbad7982cc5cd1310cfc1c83b1e7e9bc771332036ea180c362910e4068fc5ecf6928290030190a2505600a165627a7a723058208404930d20ccac83ec034e68783787ad57199c949d1a449bde8174b87cffb1ba0029",
    "sourcePath": "/Users/camilo/Documents/proyectos/cadena-library/contracts/verificationRegistry/VerificationRegistry.sol",
    "compiler": {
        "name": "solc",
        "version": "0.4.26+commit.4563c3fc"
    },
    "functionHashes": {
        "revoke(bytes32)": "b75c7dc6",
        "verifications(bytes32,address)": "95f5114c",
        "verify(bytes32,uint256)": "382262fc"
    },
    "gasEstimates": {
        "creation": {
            "codeDepositCost": "112400",
            "executionCost": "159",
            "totalCost": "112559"
        },
        "external": {
            "revoke(bytes32)": "27132",
            "verifications(bytes32,address)": "795",
            "verify(bytes32,uint256)": "42420"
        }
    }
}