{
    "contractName": "Test",
    "abi": [
        {
            "constant": true,
            "inputs": [],
            "name": "integer",
            "outputs": [
                {
                    "name": "",
                    "type": "int256"
                }
            ],
            "payable": false,
            "stateMutability": "view",
            "type": "function"
        },
        {
            "constant": true,
            "inputs": [],
            "name": "getInteger",
            "outputs": [
                {
                    "name": "",
                    "type": "uint256"
                }
            ],
            "payable": false,
            "stateMutability": "view",
            "type": "function"
        },
        {
            "constant": false,
            "inputs": [
                {
                    "name": "param",
                    "type": "string"
                }
            ],
            "name": "setTest",
            "outputs": [],
            "payable": false,
            "stateMutability": "nonpayable",
            "type": "function"
        },
        {
            "constant": true,
            "inputs": [],
            "name": "test",
            "outputs": [
                {
                    "name": "",
                    "type": "string"
                }
            ],
            "payable": false,
            "stateMutability": "view",
            "type": "function"
        }
    ],
    "bytecode": "6080604052600360015534801561001557600080fd5b506102fd806100256000396000f3006080604052600436106100615763ffffffff7c010000000000000000000000000000000000000000000000000000000060003504166309efb8ff81146100665780638b84925b1461008d578063c196f2de146100a2578063f8a8fd6d146100fd575b600080fd5b34801561007257600080fd5b5061007b610187565b60408051918252519081900360200190f35b34801561009957600080fd5b5061007b61018d565b3480156100ae57600080fd5b506040805160206004803580820135601f81018490048402850184019095528484526100fb9436949293602493928401919081908401838280828437509497506101949650505050505050565b005b34801561010957600080fd5b506101126101ab565b6040805160208082528351818301528351919283929083019185019080838360005b8381101561014c578181015183820152602001610134565b50505050905090810190601f1680156101795780820380516001836020036101000a031916815260200191505b509250505060405180910390f35b60015481565b6001545b90565b80516101a7906000906020840190610239565b5050565b6000805460408051602060026001851615610100026000190190941693909304601f810184900484028201840190925281815292918301828280156102315780601f1061020657610100808354040283529160200191610231565b820191906000526020600020905b81548152906001019060200180831161021457829003601f168201915b505050505081565b828054600181600116156101000203166002900490600052602060002090601f016020900481019282601f1061027a57805160ff19168380011785556102a7565b828001600101855582156102a7579182015b828111156102a757825182559160200191906001019061028c565b506102b39291506102b7565b5090565b61019191905b808211156102b357600081556001016102bd5600a165627a7a72305820e9700c32743f92f0dd564ad8781a5767e01d06f6f9d349f6710eec9bd31cbb410029",
    "sourcePath": "/Users/camilo/Documents/proyectos/cadena-library/contracts/test/test.sol",
    "compiler": {
        "name": "solc",
        "version": "0.4.26+commit.4563c3fc"
    },
    "functionHashes": {
        "getInteger()": "8b84925b",
        "integer()": "09efb8ff",
        "setTest(string)": "c196f2de",
        "test()": "f8a8fd6d"
    },
    "gasEstimates": {
        "creation": {
            "codeDepositCost": "153000",
            "executionCost": "20202",
            "totalCost": "173202"
        },
        "external": {
            "getInteger()": "407",
            "integer()": "384",
            "setTest(string)": "infinite",
            "test()": "infinite"
        }
    }
}