{
    "contractName": "IdentityManager",
    "abi": [
        {
            "constant": true,
            "inputs": [
                {
                    "name": "identity",
                    "type": "address"
                },
                {
                    "name": "device",
                    "type": "address"
                },
                {
                    "name": "cap",
                    "type": "string"
                }
            ],
            "name": "hasCap",
            "outputs": [
                {
                    "name": "",
                    "type": "bool"
                }
            ],
            "payable": false,
            "stateMutability": "view",
            "type": "function"
        },
        {
            "constant": false,
            "inputs": [
                {
                    "name": "keyMnemonic",
                    "type": "bytes16"
                },
                {
                    "name": "keyProfile",
                    "type": "bytes16"
                },
                {
                    "name": "urlProfile",
                    "type": "string"
                },
                {
                    "name": "username",
                    "type": "string"
                },
                {
                    "name": "salt",
                    "type": "string"
                }
            ],
            "name": "createIdentity",
            "outputs": [
                {
                    "name": "",
                    "type": "address"
                }
            ],
            "payable": false,
            "stateMutability": "nonpayable",
            "type": "function"
        },
        {
            "constant": true,
            "inputs": [
                {
                    "name": "",
                    "type": "address"
                }
            ],
            "name": "registered_identities",
            "outputs": [
                {
                    "name": "",
                    "type": "bool"
                }
            ],
            "payable": false,
            "stateMutability": "view",
            "type": "function"
        },
        {
            "constant": false,
            "inputs": [
                {
                    "name": "identity",
                    "type": "address"
                },
                {
                    "name": "device",
                    "type": "address"
                },
                {
                    "name": "start_date",
                    "type": "uint256"
                },
                {
                    "name": "end_date",
                    "type": "uint256"
                }
            ],
            "name": "setDevice",
            "outputs": [],
            "payable": false,
            "stateMutability": "nonpayable",
            "type": "function"
        },
        {
            "constant": false,
            "inputs": [
                {
                    "name": "identity",
                    "type": "address"
                },
                {
                    "name": "destination",
                    "type": "address"
                },
                {
                    "name": "value",
                    "type": "uint256"
                },
                {
                    "name": "data",
                    "type": "bytes"
                }
            ],
            "name": "forwardTo",
            "outputs": [],
            "payable": false,
            "stateMutability": "nonpayable",
            "type": "function"
        },
        {
            "constant": false,
            "inputs": [
                {
                    "name": "identity",
                    "type": "address"
                },
                {
                    "name": "owner",
                    "type": "address"
                }
            ],
            "name": "registerIdentity",
            "outputs": [],
            "payable": false,
            "stateMutability": "nonpayable",
            "type": "function"
        },
        {
            "constant": false,
            "inputs": [
                {
                    "name": "identity",
                    "type": "address"
                },
                {
                    "name": "newIdentityManager",
                    "type": "address"
                }
            ],
            "name": "upgrade",
            "outputs": [],
            "payable": false,
            "stateMutability": "nonpayable",
            "type": "function"
        },
        {
            "constant": false,
            "inputs": [
                {
                    "name": "identity",
                    "type": "address"
                },
                {
                    "name": "device",
                    "type": "address"
                },
                {
                    "name": "cap",
                    "type": "string"
                },
                {
                    "name": "start_date",
                    "type": "uint256"
                },
                {
                    "name": "end_date",
                    "type": "uint256"
                }
            ],
            "name": "setCap",
            "outputs": [],
            "payable": false,
            "stateMutability": "nonpayable",
            "type": "function"
        },
        {
            "constant": false,
            "inputs": [
                {
                    "name": "identity",
                    "type": "address"
                }
            ],
            "name": "unregisterIdentity",
            "outputs": [],
            "payable": false,
            "stateMutability": "nonpayable",
            "type": "function"
        },
        {
            "anonymous": false,
            "inputs": [
                {
                    "indexed": false,
                    "name": "proxy",
                    "type": "address"
                }
            ],
            "name": "IdentityCreated",
            "type": "event"
        },
        {
            "anonymous": false,
            "inputs": [
                {
                    "indexed": false,
                    "name": "proxy",
                    "type": "address"
                }
            ],
            "name": "IdentityRegistered",
            "type": "event"
        },
        {
            "anonymous": false,
            "inputs": [
                {
                    "indexed": false,
                    "name": "proxy",
                    "type": "address"
                }
            ],
            "name": "IdentityUnregistered",
            "type": "event"
        },
        {
            "anonymous": false,
            "inputs": [
                {
                    "indexed": false,
                    "name": "oldIdentityManager",
                    "type": "address"
                },
                {
                    "indexed": false,
                    "name": "newIdentityManager",
                    "type": "address"
                }
            ],
            "name": "Upgraded",
            "type": "event"
        },
        {
            "anonymous": false,
            "inputs": [
                {
                    "indexed": false,
                    "name": "proxy",
                    "type": "address"
                },
                {
                    "indexed": false,
                    "name": "newUser",
                    "type": "address"
                }
            ],
            "name": "AccountRecovered",
            "type": "event"
        },
        {
            "anonymous": false,
            "inputs": [
                {
                    "indexed": false,
                    "name": "identity",
                    "type": "address"
                },
                {
                    "indexed": false,
                    "name": "device",
                    "type": "address"
                },
                {
                    "indexed": false,
                    "name": "cap",
                    "type": "string"
                },
                {
                    "indexed": false,
                    "name": "start_date",
                    "type": "uint256"
                },
                {
                    "indexed": false,
                    "name": "end_date",
                    "type": "uint256"
                }
            ],
            "name": "CapSet",
            "type": "event"
        },
        {
            "anonymous": false,
            "inputs": [
                {
                    "indexed": true,
                    "name": "username",
                    "type": "string"
                },
                {
                    "indexed": false,
                    "name": "from",
                    "type": "address"
                }
            ],
            "name": "MnemonicSet",
            "type": "event"
        }
    ],
    "bytecode": "608060405234801561001057600080fd5b50612edf806100206000396000f30060806040526004361061007f5763ffffffff60e060020a600035041663140c5a4e8114610084578063416ccfed1461010757806360a98bd61461021857806361a392371461023957806373b40a5c14610268578063781f5a83146102d757806399a88ec4146102fe578063a3effe8b14610325578063e12553f51461039d575b600080fd5b34801561009057600080fd5b50604080516020600460443581810135601f81018490048402850184019095528484526100f3948235600160a060020a03908116956024803590921695369594606494929301919081908401838280828437509497506103be9650505050505050565b604080519115158252519081900360200190f35b34801561011357600080fd5b50604080516020600460443581810135601f81018490048402850184019095528484526101fc9482356fffffffffffffffffffffffffffffffff199081169560248035909216953695946064949293019190819084018382808284375050604080516020601f89358b018035918201839004830284018301909452808352979a99988101979196509182019450925082915084018382808284375050604080516020601f89358b018035918201839004830284018301909452808352979a9998810197919650918201945092508291508401838280828437509497506104759650505050505050565b60408051600160a060020a039092168252519081900360200190f35b34801561022457600080fd5b506100f3600160a060020a036004351661092c565b34801561024557600080fd5b50610266600160a060020a0360043581169060243516604435606435610941565b005b34801561027457600080fd5b50604080516020601f60643560048181013592830184900484028501840190955281845261026694600160a060020a038135811695602480359092169560443595369560849401918190840183828082843750949750610a0d9650505050505050565b3480156102e357600080fd5b50610266600160a060020a0360043581169060243516610c1f565b34801561030a57600080fd5b50610266600160a060020a0360043581169060243516610e1f565b34801561033157600080fd5b50604080516020600460443581810135601f8101849004840285018401909552848452610266948235600160a060020a03908116956024803590921695369594606494929301919081908401838280828437509497505084359550505060209092013591506110e19050565b3480156103a957600080fd5b50610266600160a060020a036004351661137d565b60006103c86117a9565b600160a060020a0380861660009081526001602090815260408083209388168352928152908290209151855186928291908401908083835b6020831061041f5780518252601f199092019160209182019101610400565b51815160209384036101000a60001901801990921691161790529201948552506040805194859003820185208582019091528054855260010154908401525090915061046c9050816114fa565b95945050505050565b6000806000306104836117c0565b600160a060020a03909116815260405190819003602001906000f0801580156104b0573d6000803e3d6000fd5b509150306104bc6117d1565b600160a060020a03909116815260405190819003602001906000f0801580156104e9573d6000803e3d6000fd5b50905081600160a060020a0316632cb41958826040518263ffffffff1660e060020a0281526004018082600160a060020a0316600160a060020a03168152602001915050600060405180830381600087803b15801561054757600080fd5b505af115801561055b573d6000803e3d6000fd5b505050600160a060020a03808416600090815260208181526040808320805460ff19166001179055517f2dabac290000000000000000000000000000000000000000000000000000000081526fffffffffffffffffffffffffffffffff198d16600482019081526060602483019081528b5160648401528b519588169650632dabac29958f958d958d956044810193608490910192918801918190849084905b838110156106135781810151838201526020016105fb565b50505050905090810190601f1680156106405780820380516001836020036101000a031916815260200191505b50838103825284518152845160209182019186019080838360005b8381101561067357818101518382015260200161065b565b50505050905090810190601f1680156106a05780820380516001836020036101000a031916815260200191505b5095505050505050600060405180830381600087803b1580156106c257600080fd5b505af11580156106d6573d6000803e3d6000fd5b5050604080517f1c7ba19d0000000000000000000000000000000000000000000000000000000081526fffffffffffffffffffffffffffffffff198b1660048201908152602482019283528a5160448301528a51600160a060020a0387169550631c7ba19d94508c938c939091606490910190602085019080838360005b8381101561076c578181015183820152602001610754565b50505050905090810190601f1680156107995780820380516001836020036101000a031916815260200191505b509350505050600060405180830381600087803b1580156107b957600080fd5b505af11580156107cd573d6000803e3d6000fd5b5050505080600160a060020a03166392eefe9b836040518263ffffffff1660e060020a0281526004018082600160a060020a0316600160a060020a03168152602001915050600060405180830381600087803b15801561082c57600080fd5b505af1158015610840573d6000803e3d6000fd5b50505050846040518082805190602001908083835b602083106108745780518252601f199092019160209182019101610855565b51815160209384036101000a600019018019909216911617905260408051929094018290038220600160a060020a038916835293519395507fa41c7bc01a19a1f2490ea9081f161455757097ccf896b4ef94f6c225efd5e12894509083900301919050a26108e58233426000611530565b60408051600160a060020a038416815290517fac993fde3b9423ff59e4a23cded8e89074c9c8740920d1d870f586ba7c5c8cf09181900360200190a1509695505050505050565b60006020819052908152604090205460ff1681565b61098384846040805190810160405280600281526020017f667700000000000000000000000000000000000000000000000000000000000081525085856110e1565b6109c584846040805190810160405280600481526020017f617574680000000000000000000000000000000000000000000000000000000081525085856110e1565b610a0784846040805190810160405280600d81526020017f6465766963656d616e616765720000000000000000000000000000000000000081525085856110e1565b50505050565b836040805190810160405280600281526020017f6677000000000000000000000000000000000000000000000000000000000000815250610a4c6117a9565b600160a060020a03831660009081526001602090815260408083203384528252918290209151845185928291908401908083835b60208310610a9f5780518252601f199092019160209182019101610a80565b51815160209384036101000a600019018019909216911617905292019485525060408051948590038201852085820190915280548552600101549084015250909150610aec9050816114fa565b1515610b31576040805160e560020a62461bcd028152602060048201526016602482015260008051602062002e94833981519152604482015290519081900360640190fd5b86600160a060020a031663d7f31eb98787876040518463ffffffff1660e060020a0281526004018084600160a060020a0316600160a060020a0316815260200183815260200180602001828103825283818151815260200191508051906020019080838360005b83811015610bb0578181015183820152602001610b98565b50505050905090810190601f168015610bdd5780820380516001836020036101000a031916815260200191505b50945050505050600060405180830381600087803b158015610bfe57600080fd5b505af1158015610c12573d6000803e3d6000fd5b5050505050505050505050565b600160a060020a03821660009081526020819052604090205460ff1615610cb6576040805160e560020a62461bcd02815260206004820152602360248201527f416c72656164792072656769737465726564206f6e2074686174206964656e7460448201527f6974790000000000000000000000000000000000000000000000000000000000606482015290519081900360840190fd5b600160a060020a038216600081815260208181526040808320805460ff1916600117905580517f2f54bf6e0000000000000000000000000000000000000000000000000000000081523060048201529051632f54bf6e93602480840194938390030190829087803b158015610d2a57600080fd5b505af1158015610d3e573d6000803e3d6000fd5b505050506040513d6020811015610d5457600080fd5b50511515610dd2576040805160e560020a62461bcd02815260206004820152602160248201527f49276d206e6f7420616e206f776e6572206f662074686174206964656e74697460448201527f7900000000000000000000000000000000000000000000000000000000000000606482015290519081900360840190fd5b610ddf8282426000611530565b60408051600160a060020a038416815290517fcae2f416e2ab213d7907943e6c1cf701343f6415fd0be1f0c3db985222ca04a59181900360200190a15050565b816040805190810160405280600581526020017f61646d696e000000000000000000000000000000000000000000000000000000815250610e5e6117a9565b600160a060020a03831660009081526001602090815260408083203384528252918290209151845185928291908401908083835b60208310610eb15780518252601f199092019160209182019101610e92565b51815160209384036101000a600019018019909216911617905292019485525060408051948590038201852085820190915280548552600101549084015250909150610efe9050816114fa565b1515610f43576040805160e560020a62461bcd028152602060048201526016602482015260008051602062002e94833981519152604482015290519081900360640190fd5b84600160a060020a0316637065cb48856040518263ffffffff1660e060020a0281526004018082600160a060020a0316600160a060020a03168152602001915050600060405180830381600087803b158015610f9e57600080fd5b505af1158015610fb2573d6000803e3d6000fd5b5050505084600160a060020a031663b15be2f56040518163ffffffff1660e060020a028152600401600060405180830381600087803b158015610ff457600080fd5b505af1158015611008573d6000803e3d6000fd5b5050604080517f781f5a83000000000000000000000000000000000000000000000000000000008152600160a060020a0389811660048301523360248301529151918816935063781f5a83925060448082019260009290919082900301818387803b15801561107657600080fd5b505af115801561108a573d6000803e3d6000fd5b505050506110978561137d565b60408051308152600160a060020a038616602082015281517f5d611f318680d00598bb735d61bacf0c514c6b50e1e5ad30040a4df2b12791c7929181900390910190a15050505050565b846040805190810160405280600d81526020017f6465766963656d616e61676572000000000000000000000000000000000000008152506111206117a9565b600160a060020a03831660009081526001602090815260408083203384528252918290209151845185928291908401908083835b602083106111735780518252601f199092019160209182019101611154565b51815160209384036101000a6000190180199092169116179052920194855250604080519485900382018520858201909152805485526001015490840152509091506111c09050816114fa565b1515611205576040805160e560020a62461bcd028152602060048201526016602482015260008051602062002e94833981519152604482015290519081900360640190fd5b6040805180820182528681526020808201879052600160a060020a03808c16600090815260018352848120918c168152908252839020925189519293928a928291908401908083835b6020831061126d5780518252601f19909201916020918201910161124e565b51815160209384036101000a60001901801990921691161790529201948552506040805194859003820185208651815595820151600190960195909555600160a060020a038d811685528c1684820152606084018a90526080840189905260a09484018581528b51958501959095528a517f80739aafc1752b2e2276f4acdc567b6fd0391e87e67945f1de5242035ca228a6958e958e95508d94508c938c9391929160c084019187019080838360005b8381101561133557818101518382015260200161131d565b50505050905090810190601f1680156113625780820380516001836020036101000a031916815260200191505b50965050505050505060405180910390a15050505050505050565b806040805190810160405280600581526020017f61646d696e0000000000000000000000000000000000000000000000000000008152506113bc6117a9565b600160a060020a03831660009081526001602090815260408083203384528252918290209151845185928291908401908083835b6020831061140f5780518252601f1990920191602091820191016113f0565b51815160209384036101000a60001901801990921691161790529201948552506040805194859003820185208582019091528054855260010154908401525090915061145c9050816114fa565b15156114a1576040805160e560020a62461bcd028152602060048201526016602482015260008051602062002e94833981519152604482015290519081900360640190fd5b600160a060020a03841660008181526020818152604091829020805460ff19169055815192835290517f20f455568a172eeed867c6a177458b42607b460b4fe04d85e74817ef79df4b329281900390910190a150505050565b80516000901580159061150e575081514210155b801561152a575081602001514211158061152a57506020820151155b92915050565b61157284846040805190810160405280600281526020017f66770000000000000000000000000000000000000000000000000000000000008152508585611634565b6115b484846040805190810160405280600481526020017f61757468000000000000000000000000000000000000000000000000000000008152508585611634565b6115f684846040805190810160405280600d81526020017f6465766963656d616e61676572000000000000000000000000000000000000008152508585611634565b610a0784846040805190810160405280600581526020017f61646d696e00000000000000000000000000000000000000000000000000000081525085855b6040805180820182528381526020808201849052600160a060020a0380891660009081526001835284812091891681529082528390209251865192939287928291908401908083835b6020831061169c5780518252601f19909201916020918201910161167d565b51815160209384036101000a60001901801990921691161790529201948552506040805194859003820185208651815595820151600190960195909555600160a060020a038a81168552891684820152606084018790526080840186905260a094840185815288519585019590955287517f80739aafc1752b2e2276f4acdc567b6fd0391e87e67945f1de5242035ca228a6958b958b95508a94508993899391929160c084019187019080838360005b8381101561176457818101518382015260200161174c565b50505050905090810190601f1680156117915780820380516001836020036101000a031916815260200191505b50965050505050505060405180910390a15050505050565b604080518082019091526000808252602082015290565b60405161079980620017e383390190565b604051610f188062001f7c83390190560060e0604052602e60808190527f516d56787953616d716862466346724a445945396335616739343164506f537860a09081527f7666664655715450364254477a5900000000000000000000000000000000000060c05261006291600191906100e5565b5060028054600160a060020a031916905534801561007f57600080fd5b506040516020806107998339810160408181529151600160a060020a03811660008181526020819052938420805460ff19166001179055909283927f994a936646fe87ffe4f1e469d3d6aa417d6b855598397f323de5b449f765f0c39190a25050610180565b828054600181600116156101000203166002900490600052602060002090601f016020900481019282601f1061012657805160ff1916838001178555610153565b82800160010185558215610153579182015b82811115610153578251825591602001919060010190610138565b5061015f929150610163565b5090565b61017d91905b8082111561015f5760008155600101610169565b90565b61060a8061018f6000396000f30060806040526004361061008d5763ffffffff7c0100000000000000000000000000000000000000000000000000000000600035041663022914a781146100c55780632cb41958146100fa5780632f54bf6e1461011d5780637065cb481461013e578063a2d1183a1461015f578063af640d0f146101e9578063b15be2f51461021a578063d7f31eb91461022f575b60408051348152905133917f88a5966d370b9919b20f3e2c13ff65706f196a4e32cc2c12bf57088f88525874919081900360200190a2005b3480156100d157600080fd5b506100e6600160a060020a0360043516610298565b604080519115158252519081900360200190f35b34801561010657600080fd5b5061011b600160a060020a03600435166102ad565b005b34801561012957600080fd5b506100e6600160a060020a036004351661032a565b34801561014a57600080fd5b5061011b600160a060020a0360043516610348565b34801561016b57600080fd5b506101746103a8565b6040805160208082528351818301528351919283929083019185019080838360005b838110156101ae578181015183820152602001610196565b50505050905090810190601f1680156101db5780820380516001836020036101000a031916815260200191505b509250505060405180910390f35b3480156101f557600080fd5b506101fe610435565b60408051600160a060020a039092168252519081900360200190f35b34801561022657600080fd5b5061011b610444565b34801561023b57600080fd5b50604080516020600460443581810135601f810184900484028501840190955284845261011b948235600160a060020a03169460248035953695946064949201919081908401838280828437509497506104979650505050505050565b60006020819052908152604090205460ff1681565b6102b63361032a565b15156102c157600080fd5b600254604051600160a060020a038084169216907f5d611f318680d00598bb735d61bacf0c514c6b50e1e5ad30040a4df2b12791c790600090a36002805473ffffffffffffffffffffffffffffffffffffffff1916600160a060020a0392909216919091179055565b600160a060020a031660009081526020819052604090205460ff1690565b6103513361032a565b151561035c57600080fd5b600160a060020a038116600081815260208190526040808220805460ff19166001179055517f994a936646fe87ffe4f1e469d3d6aa417d6b855598397f323de5b449f765f0c39190a250565b60018054604080516020600284861615610100026000190190941693909304601f8101849004840282018401909252818152929183018282801561042d5780601f106104025761010080835404028352916020019161042d565b820191906000526020600020905b81548152906001019060200180831161041057829003601f168201915b505050505081565b600254600160a060020a031681565b61044d3361032a565b151561045857600080fd5b33600081815260208190526040808220805460ff19169055517f58619076adf5bb0943d100ef88d52d7c3fd691b19d3a9071b555b651fbf418da9190a2565b6104a03361032a565b15156104ab57600080fd5b82600160a060020a0316828260405180828051906020019080838360005b838110156104e15781810151838201526020016104c9565b50505050905090810190601f16801561050e5780820380516001836020036101000a031916815260200191505b5091505060006040518083038185875af192505050151561052e57600080fd5b82600160a060020a03167fc1de93dfa06362c6a616cde73ec17d116c0d588dd1df70f27f91b500de207c4183836040518083815260200180602001828103825283818151815260200191508051906020019080838360005b8381101561059e578181015183820152602001610586565b50505050905090810190601f1680156105cb5780820380516001836020036101000a031916815260200191505b50935050505060405180910390a25050505600a165627a7a72305820353407b668b9c1a817f3a957090bcbb42d7f182b6a285f00aed7f0039dc3fcfd0029608060405260028054600160a060020a031916905534801561002057600080fd5b50604051602080610f18833981016040818152915160018054600160a060020a031916600160a060020a03808416919091179182905516825291517f79f74fd5964b6943d8a1865abfb7f668c92fa3f32c0a2e3195da7d0946703ad7916020908290030190a150610e82806100966000396000f3006080604052600436106100c45763ffffffff7c010000000000000000000000000000000000000000000000000000000060003504166304c991fa81146100c95780631c7ba19d146100f25780632dabac291461015a578063503f396b14610200578063704b6c021461029757806392eefe9b146102b857806396d1531c146102d9578063c6af3eb5146103d9578063d769333514610443578063ead22bee1461046d578063f77c47911461048f578063f851a440146104c0578063ffc28af7146104d5575b600080fd5b3480156100d557600080fd5b506100f0600435602435600160a060020a036044351661053d565b005b3480156100fe57600080fd5b5060408051602060046024803582810135601f81018590048502860185019096528585526100f09583356001608060020a0319169536956044949193909101919081908401838280828437509497506105c99650505050505050565b34801561016657600080fd5b5060408051602060046024803582810135601f81018590048502860185019096528585526100f09583356001608060020a03191695369560449491939091019190819084018382808284375050604080516020601f89358b018035918201839004830284018301909452808352979a9998810197919650918201945092508291508401838280828437509497506106d69650505050505050565b34801561020c57600080fd5b506102226001608060020a0319600435166107db565b6040805160208082528351818301528351919283929083019185019080838360005b8381101561025c578181015183820152602001610244565b50505050905090810190601f1680156102895780820380516001836020036101000a031916815260200191505b509250505060405180910390f35b3480156102a357600080fd5b506100f0600160a060020a0360043516610876565b3480156102c457600080fd5b506100f0600160a060020a0360043516610904565b3480156102e557600080fd5b506102fb6001608060020a031960043516610992565b604051808060200180602001838103835285818151815260200191508051906020019080838360005b8381101561033c578181015183820152602001610324565b50505050905090810190601f1680156103695780820380516001836020036101000a031916815260200191505b50838103825284518152845160209182019186019080838360005b8381101561039c578181015183820152602001610384565b50505050905090810190601f1680156103c95780820380516001836020036101000a031916815260200191505b5094505050505060405180910390f35b3480156103e557600080fd5b506040805160206004803580820135601f81018490048402850184019095528484526100f094369492936024939284019190819084018382808284375094975050508335600160a060020a0316945050506020909101359050610ad1565b34801561044f57600080fd5b506100f0600435602435600160a060020a0360443516606435610b95565b34801561047957600080fd5b506102226001608060020a031960043516610c42565b34801561049b57600080fd5b506104a4610caa565b60408051600160a060020a039092168252519081900360200190f35b3480156104cc57600080fd5b506104a4610cb9565b3480156104e157600080fd5b5060408051602060046024803582810135601f81018590048502860185019096528585526100f09583356001608060020a031916953695604494919390910191908190840183828082843750949750610cc89650505050505050565b60408051808201825260008082524260208084018281528884528382528584208885528252858420600160a060020a0388168086529083529386902094518555516001909401939093558351918252918101919091528151849286927fedfbdfd15decaf53dd822d2c89ba81f97fc9e7687087a2474398671fbf64ebba929081900390910190a3505050565b600154600160a060020a031633146105e057600080fd5b6001608060020a031982166000908152600360209081526040909120825161060a92840190610dbb565b507f51e5f42496d568b937facdd9d52c03bb59fda23cfb38d9c67b2a25aff8e83c84828260405180836fffffffffffffffffffffffffffffffff19166fffffffffffffffffffffffffffffffff1916815260200180602001828103825283818151815260200191508051906020019080838360005b8381101561069757818101518382015260200161067f565b50505050905090810190601f1680156106c45780820380516001836020036101000a031916815260200191505b50935050505060405180910390a15050565b600154600160a060020a031633146106ed57600080fd5b60408051808201825283815260208082018490526001608060020a0319861660009081526005825292909220815180519293919261072e9284920190610dbb565b5060208281015180516107479260018501920190610dbb565b50905050816040518082805190602001908083835b6020831061077b5780518252601f19909201916020918201910161075c565b51815160209384036101000a60001901801990921691161790526040805192909401829003822033835293519395507fa41c7bc01a19a1f2490ea9081f161455757097ccf896b4ef94f6c225efd5e12894509083900301919050a2505050565b60046020908152600091825260409182902080548351601f60026000196101006001861615020190931692909204918201849004840281018401909452808452909183018282801561086e5780601f106108435761010080835404028352916020019161086e565b820191906000526020600020905b81548152906001019060200180831161085157829003601f168201915b505050505081565b600154600160a060020a0316331461088d57600080fd5b60025460408051600160a060020a039283168152918316602083015280517f101b8081ff3b56bbf45deb824d86a3b0fd38b7e3dd42421105cf8abe9106db0b9281900390910190a16002805473ffffffffffffffffffffffffffffffffffffffff1916600160a060020a0392909216919091179055565b600154600160a060020a031615806109265750600154600160a060020a031633145b156100c4576001805473ffffffffffffffffffffffffffffffffffffffff1916600160a060020a03838116919091179182905560408051929091168252517f79f74fd5964b6943d8a1865abfb7f668c92fa3f32c0a2e3195da7d0946703ad7916020908290030190a150565b60056020908152600091825260409182902080548351601f60026000196101006001861615020190931692909204918201849004840281018401909452808452909291839190830182828015610a295780601f106109fe57610100808354040283529160200191610a29565b820191906000526020600020905b815481529060010190602001808311610a0c57829003601f168201915b505050505090806001018054600181600116156101000203166002900480601f016020809104026020016040519081016040528092919081815260200182805460018160011615610100020316600290048015610ac75780601f10610a9c57610100808354040283529160200191610ac7565b820191906000526020600020905b815481529060010190602001808311610aaa57829003601f168201915b5050505050905082565b600154600160a060020a03163314610ae857600080fd5b806000191682600160a060020a03167fbb3bfbd21aacef758ed76e61cf4f50ebc5bb19d83b86f9dd1f9ebbcd7e9e7f4f856040518080602001828103825283818151815260200191508051906020019080838360005b83811015610b56578181015183820152602001610b3e565b50505050905090810190601f168015610b835780820380516001836020036101000a031916815260200191505b509250505060405180910390a3505050565b6000808211610ba5576000610bae565b81620151800242015b60408051808201825242808252602080830185815260008b81528083528581208b82528352858120600160a060020a038b168083529084529086902094518555905160019094019390935583519283528201528082018390529051919250859187917fe663f148e7a26c204f3be67a702302b2a6a577faf8ec7956385786dad984a6e6919081900360600190a35050505050565b60036020908152600091825260409182902080548351601f60026000196101006001861615020190931692909204918201849004840281018401909452808452909183018282801561086e5780601f106108435761010080835404028352916020019161086e565b600154600160a060020a031681565b600254600160a060020a031681565b600154600160a060020a03163314610cdf57600080fd5b6001608060020a0319821660009081526004602090815260409091208251610d0992840190610dbb565b50816fffffffffffffffffffffffffffffffff19167f9d4650a66631fd12d4c5721023113148b145e41089a676beb17121c3c2fb55f4826040518080602001828103825283818151815260200191508051906020019080838360005b83811015610d7d578181015183820152602001610d65565b50505050905090810190601f168015610daa5780820380516001836020036101000a031916815260200191505b509250505060405180910390a25050565b828054600181600116156101000203166002900490600052602060002090601f016020900481019282601f10610dfc57805160ff1916838001178555610e29565b82800160010185558215610e29579182015b82811115610e29578251825591602001919060010190610e0e565b50610e35929150610e39565b5090565b610e5391905b80821115610e355760008155600101610e3f565b905600a165627a7a72305820b660b3d21ae09816fc7751b0d1de20d735db295411b2c851c1ab9ce0204232a800294361706162696c697479206e6f7420616c6c6f77656400000000000000000000a165627a7a723058201674f0d4a453ebe9c6d3798041aa6b2dda4f0b56b521e032e02988f59456a0690029",
    "sourcePath": "/Users/camilo/Documents/proyectos/cadena-library/contracts/identity/IdentityManager.sol",
    "compiler": {
        "name": "solc",
        "version": "0.4.26+commit.4563c3fc"
    },
    "functionHashes": {
        "createIdentity(bytes16,bytes16,string,string,string)": "416ccfed",
        "forwardTo(address,address,uint256,bytes)": "73b40a5c",
        "hasCap(address,address,string)": "140c5a4e",
        "registerIdentity(address,address)": "781f5a83",
        "registered_identities(address)": "60a98bd6",
        "setCap(address,address,string,uint256,uint256)": "a3effe8b",
        "setDevice(address,address,uint256,uint256)": "61a39237",
        "unregisterIdentity(address)": "e12553f5",
        "upgrade(address,address)": "99a88ec4"
    },
    "gasEstimates": {
        "creation": {
            "codeDepositCost": "2399800",
            "executionCost": "2575",
            "totalCost": "2402375"
        },
        "external": {
            "createIdentity(bytes16,bytes16,string,string,string)": "infinite",
            "forwardTo(address,address,uint256,bytes)": "infinite",
            "hasCap(address,address,string)": "infinite",
            "registerIdentity(address,address)": "infinite",
            "registered_identities(address)": "653",
            "setCap(address,address,string,uint256,uint256)": "infinite",
            "setDevice(address,address,uint256,uint256)": "infinite",
            "unregisterIdentity(address)": "infinite",
            "upgrade(address,address)": "infinite"
        },
        "internal": {
            "setFirstCap(contract Proxy,address,string memory,uint256,uint256)": "infinite",
            "setFirstDevice(contract Proxy,address,uint256,uint256)": "infinite",
            "validTimerange(struct IdentityManager.Timerange memory)": "infinite"
        }
    }
}