{
    "contractName": "Test",
    "abi": [
        {
            "constant": false,
            "inputs": [
                {
                    "name": "param",
                    "type": "string"
                }
            ],
            "name": "emitEvent",
            "outputs": [],
            "payable": false,
            "stateMutability": "nonpayable",
            "type": "function"
        },
        {
            "constant": false,
            "inputs": [
                {
                    "name": "param1",
                    "type": "string"
                },
                {
                    "name": "param2",
                    "type": "string"
                }
            ],
            "name": "emitEvent2",
            "outputs": [],
            "payable": false,
            "stateMutability": "nonpayable",
            "type": "function"
        },
        {
            "anonymous": false,
            "inputs": [
                {
                    "indexed": false,
                    "name": "param",
                    "type": "string"
                }
            ],
            "name": "TestEvent",
            "type": "event"
        },
        {
            "anonymous": false,
            "inputs": [
                {
                    "indexed": true,
                    "name": "param1",
                    "type": "string"
                },
                {
                    "indexed": false,
                    "name": "param2",
                    "type": "string"
                }
            ],
            "name": "TestEvent2",
            "type": "event"
        }
    ],
    "bytecode": "608060405234801561001057600080fd5b506102fb806100206000396000f30060806040526004361061004b5763ffffffff7c0100000000000000000000000000000000000000000000000000000000600035041663982296a881146100505780639abdd3b5146100ab575b600080fd5b34801561005c57600080fd5b506040805160206004803580820135601f81018490048402850184019095528484526100a99436949293602493928401919081908401838280828437509497506101429650505050505050565b005b3480156100b757600080fd5b506040805160206004803580820135601f81018490048402850184019095528484526100a994369492936024939284019190819084018382808284375050604080516020601f89358b018035918201839004830284018301909452808352979a9998810197919650918201945092508291508401838280828437509497506101de9650505050505050565b7fe75028ff36bb6473da3731a30e1aeeae9988e2415dba2c4e91e0357955065fba816040518080602001828103825283818151815260200191508051906020019080838360005b838110156101a1578181015183820152602001610189565b50505050905090810190601f1680156101ce5780820380516001836020036101000a031916815260200191505b509250505060405180910390a150565b816040518082805190602001908083835b6020831061020e5780518252601f1990920191602091820191016101ef565b51815160209384036101000a60001901801990921691161790526040805192909401829003822081835287518383015287519096507fb3a65a402a6c0efb49c17882119d860bfd1f7e5b48dee78510d9cba554a7128b95508794929350839283019185019080838360005b83811015610291578181015183820152602001610279565b50505050905090810190601f1680156102be5780820380516001836020036101000a031916815260200191505b509250505060405180910390a250505600a165627a7a723058206216ecc5b6555b79dcba1bf41b5eb5584d78e3620b257bcdc6a6d3c599250ec20029",
    "sourcePath": "/Users/camilo/Documents/proyectos/cadena-library/contracts/test1/test1.sol",
    "compiler": {
        "name": "solc",
        "version": "0.4.26+commit.4563c3fc"
    },
    "functionHashes": {
        "emitEvent(string)": "982296a8",
        "emitEvent2(string,string)": "9abdd3b5"
    },
    "gasEstimates": {
        "creation": {
            "codeDepositCost": "152600",
            "executionCost": "196",
            "totalCost": "152796"
        },
        "external": {
            "emitEvent(string)": "infinite",
            "emitEvent2(string,string)": "infinite"
        }
    }
}